:100000000C945C000C9479000C9479000C947900A9
:100010000C9479000C9479000C9479000C9479007C
:100020000C9479000C9479000C9479000C9479006C
:100030000C9479000C9479000C9479000C9479005C
:100040000C940B010C9479000C9479000C947900B9
:100050000C9479000C9479000C9479000C9479003C
:100060000C9479000C947900000000080002010053
:100070000003040700000000000000000000000072
:10008000250028002B0000000000240027002A0083
:10009000040404040404040402020202020203032E
:1000A0000303030301020408102040800102040836
:1000B000102001020408102011241FBECFEFD8E049
:1000C000DEBFCDBF11E0A0E0B1E0E2E0F4E002C0AD
:1000D00005900D92AC38B107D9F721E0ACE8B1E05A
:1000E00001C01D92A539B207E1F70E9455010C9499
:1000F000FF010C94000090E0FC01EC55FF4F2491AF
:1001000080579F4FFC018491882399F090E0880FDD
:10011000991FFC01EA57FF4FA591B491FC01E458E7
:10012000FF4F859194918FB7F894EC91E22BEC936B
:100130008FBF089590E0FC01E859FF4F2491FC0126
:10014000EC55FF4F3491FC01E057FF4FE491EE2353
:10015000C9F0222339F0233001F1A8F4213019F13C
:10016000223029F1F0E0EE0FFF1FE458FF4FA59178
:10017000B4918FB7F894EC91611126C030953E236D
:100180003C938FBF08952730A9F02830C9F0243060
:1001900049F7809180008F7D03C0809180008F7728
:1001A00080938000DFCF84B58F7784BDDBCF84B5AB
:1001B0008F7DFBCF8091B0008F778093B000D2CF3E
:1001C0008091B0008F7DF9CF3E2BDACF3FB7F89406
:1001D0008091910190919201A0919301B09194012D
:1001E00026B5A89B05C02F3F19F00196A11DB11D92
:1001F0003FBFBA2FA92F982F8827BC01CD01620FCE
:10020000711D811D911D42E0660F771F881F991F88
:100210004A95D1F708951F920F920FB60F921124AD
:100220002F933F938F939F93AF93BF9380918D01B3
:1002300090918E01A0918F01B091900130918C012D
:1002400023E0230F2D3758F50196A11DB11D2093F2
:100250008C0180938D0190938E01A0938F01B093B8
:1002600090018091910190919201A0919301B091A0
:1002700094010196A11DB11D80939101909392016B
:10028000A0939301B0939401BF91AF919F918F91EF
:100290003F912F910F900FBE0F901F90189526E859
:1002A000230F0296A11DB11DD2CF789484B5826030
:1002B00084BD84B5816084BD85B5826085BD85B50A
:1002C000816085BD80916E00816080936E00109288
:1002D0008100809181008260809381008091810003
:1002E0008160809381008091800081608093800094
:1002F0008091B10084608093B1008091B0008160F2
:100300008093B00080917A00846080937A0080911D
:100310007A00826080937A0080917A008160809375
:100320007A0080917A00806880937A001092C100F0
:1003300082E00E947B0083E00E947B0084E00E94B8
:100340007B0085E00E947B0086E00E947B0087E0C6
:100350000E947B0088E00E947B0000E010E0C0E08B
:10036000D1E0688182E00E949A006A8183E00E9465
:100370009A006C8184E00E949A006E8185E00E9460
:100380009A00688586E00E949A006A8587E00E944C
:100390009A006C8588E00E949A000E94E6004B015A
:1003A0005C0188EEC82E83E0D82EE12CF12C0E944F
:1003B000E600681979098A099B09683E734081053E
:1003C0009105A8F321E0C21AD108E108F10888EEEE
:1003D000880E83E0981EA11CB11CC114D104E10455
:1003E000F10429F72E9681E0CC38D80709F0B9CF6F
:1003F0000115110509F4B3CF0E940000B0CFF894A5
:02040000FFCF2C
:1004020001000100010001000100010000000000E4
:1004120001000100000000000000000001000100D6
:1004220000000100010000000100010001000100C4
:1004320001000000000001000000010001000000B6
:1004420000000100010001000000010001000000A5
:100452000100010001000000010001000100010093
:100462000100010001000100000000000000000086
:100472000100010001000100010001000100010072
:0C04820001000100010000000100010069
:00000001FF
