:100000000C945D000C9485000C9485000C94850084
:100010000C9485000C9485000C9485000C9485004C
:100020000C9485000C9485000C9485000C9485003C
:100030000C9485000C9485000C9485000C9485002C
:100040000C94D9020C9485000C9485000C948500C6
:100050000C9485000C9485000C9485000C9485000C
:100060000C9485000C94850000000008000201003B
:100070000003040700000000000000000000000072
:10008000250028002B0000000000240027002A0083
:10009000040404040404040402020202020203032E
:1000A0000303030301020408102040800102040836
:1000B0001020010204081020CF0311241FBECFEF2F
:1000C000D8E0DEBFCDBF11E0A0E0B1E0E0E3F8E0B2
:1000D00002C005900D92A831B107D9F721E0A8E13F
:1000E000B1E001C01D92A933B207E1F710E0CDE500
:1000F000D0E004C02197FE010E941004CC35D10746
:10010000C9F70E9423030C9416040C94000090E09D
:10011000FC01EC55FF4F249180579F4FFC018491C7
:10012000882399F090E0880F991FFC01EA57FF4F50
:10013000A591B491FC01E458FF4F859194918FB73C
:10014000F894EC91E22BEC938FBF089590E0FC01C2
:10015000E859FF4F2491FC01EC55FF4F3491FC010D
:10016000E057FF4FE491EE23C9F0222339F023300A
:1001700001F1A8F4213019F1223029F1F0E0EE0F5D
:10018000FF1FE458FF4FA591B4918FB7F894EC91FD
:10019000611126C030953E233C938FBF08952730D0
:1001A000A9F02830C9F0243049F7809180008F7D74
:1001B00003C0809180008F7780938000DFCF84B56B
:1001C0008F7784BDDBCF84B58F7DFBCF8091B0006E
:1001D0008F778093B000D2CF8091B0008F7DF9CF20
:1001E0003E2BDACF3FB7F89480911D0190911E010C
:1001F000A0911F01B091200126B5A89B05C02F3FFB
:1002000019F00196A11DB11D3FBFBA2FA92F982F3C
:100210008827BC01CD01620F711D811D911D42E037
:10022000660F771F881F991F4A95D1F70895AF92DF
:10023000BF92CF92DF92EF92FF920F931F93CF93D3
:10024000DF936C017B018B01040F151FEB015E0135
:10025000AE18BF08C017D10759F06991D601ED91CA
:10026000FC910190F081E02DC6010995892B79F769
:10027000C501DF91CF911F910F91FF90EF90DF901B
:10028000CF90BF90AF900895089590E080E00895DA
:100290008F929F92AF92BF920F931F93CF93DF9352
:1002A000CDB7DEB7A1970FB6F894DEBF0FBECDBFB6
:1002B00019A2423008F44AE08E010F5D1F4F842ED0
:1002C000912CB12CA12CA50194010E94EE03E62FE4
:1002D000B901CA01EA3044F5E05DD801EE938D0121
:1002E000232B242B252B79F790E080E0109769F0E1
:1002F000FD0101900020E9F73197AF014A1B5B0B2C
:10030000BD0181E291E00E941701A1960FB6F89419
:10031000DEBF0FBECDBFDF91CF911F910F91BF9078
:10032000AF909F908F900895E95CD7CFCF93DF93E4
:10033000EC0160E08E810E94A60061E08E810E9447
:10034000A60060E08E810E94A6008BE891E00197F4
:10035000F1F7DF91CF910895CF92DF92EF92FF9264
:100360000F931F93CF93DF936C017C0187E0E80E1E
:10037000F11CD0E0C0E0062F10E0B8010C2E02C046
:10038000759567950A94E2F76170F70181917F0195
:100390000E94A6002196C430D10579F7C601DF91ED
:1003A000CF911F910F91FF90EF90DF90CF900C9421
:1003B0009601CF92DF92EF92FF920F931F93CF930C
:1003C000DF93EC01F62E642F8C810E94A6008D81B4
:1003D0008F3F19F060E00E94A6000F2D10E08F857E
:1003E00084FF25C06E0187E0C80ED11CF12CE12CE2
:1003F000B8010E2C02C0759567950A94E2F76170FA
:10040000F60181916F010E94A600FFEFEF1AFF0A2B
:1004100088E0E816F10461F7CE01DF91CF911F91DA
:100420000F91FF90EF90DF90CF900C949601B80160
:1004300084E0759567958A95E1F7CE010E94AC013D
:100440006F2DCE01DF91CF911F910F91FF90EF9013
:10045000DF90CF900C94AC0140E0682F81E291E0F6
:100460000C94D901CF93DF93623028F09091300142
:10047000986090933001609334011092350190E4BC
:100480009093360180933701805C8093380180918E
:1004900025010E948700809126018F3F11F00E9464
:1004A0008700809127010E948700C1E2D1E09E0170
:1004B000215231408091300184FD0AC084E090E0F7
:1004C0002196281739073CF48E810E948700EFCFD0
:1004D00088E090E0F5CF8BE39DE00197F1F760E0D5
:1004E000809125010E94A60060E0809127010E9472
:1004F000A600809126018F3F19F060E00E94A600BF
:100500008091300184FD39C063E081E291E00E9476
:10051000AC01CBE4D6E4CE010197F1F763E081E2D0
:1005200091E00E94AC012197F1F763E081E291E054
:100530000E94AC0183E592E00197F1F762E081E26D
:1005400091E00E94AC018091300180620E942C02F7
:1005500084E0809331018CE00E942C0281E00E94B3
:100560002C028BE39FE10197F1F782E08093320147
:1005700086E0DF91CF910C942C0280620E942C02C5
:100580008BE496E40197F1F78091300180620E943C
:100590002C0283E592E00197F1F7809130018062AF
:1005A0000E942C02D0CF41E00E94D90181E090E06E
:1005B00008951F920F920FB60F9211242F933F931D
:1005C0008F939F93AF93BF938091190190911A01DC
:1005D000A0911B01B0911C013091180123E0230F61
:1005E0002D3758F50196A11DB11D20931801809358
:1005F000190190931A01A0931B01B0931C018091E3
:100600001D0190911E01A0911F01B0912001019642
:10061000A11DB11D80931D0190931E01A0931F0188
:10062000B0932001BF91AF919F918F913F912F91F6
:100630000F900FBE0F901F90189526E8230F02967B
:10064000A11DB11DD2CF789484B5826084BD84B5DC
:10065000816084BD85B5826085BD85B5816085BDBD
:1006600080916E00816080936E0010928100809175
:1006700081008260809381008091810081608093FD
:100680008100809180008160809380008091B10022
:1006900084608093B1008091B00081608093B0004D
:1006A00080917A00846080937A0080917A008260E1
:1006B00080937A0080917A00816080937A008091A3
:1006C0007A00806880937A001092C10062E080E135
:1006D0000E943202C0E0D0E0C12CD12C7601E1E0D2
:1006E000809134018111E0E0E195F0E0EF5DFE4F93
:1006F000848980680E942C024BE050E06CE071E03D
:1007000081E291E00E941701E0913401E23008F0AB
:1007100044C0E150F0E0EF5DFE4F848980680E94A4
:100720002C024AE0C701B6010E9448010E94F20073
:100730002B013C0188EE882E83E0982EA12CB12C51
:100740000E94F2006419750986099709683E734092
:1007500081059105A8F321E0821A9108A108B1084A
:1007600088EE480E83E0581E611C711C81149104B0
:10077000A104B10429F78FEFC81AD80AE80AF80AC9
:100780002AE0C216D104E104F10409F0A8CF2097B1
:1007900009F4A2CF0E9400009FCFE1E0BBCFE1E2CD
:1007A000F1E01382128284E091E0918380838CE0F7
:1007B00084838FEF85838BE0868385E0878384E065
:1007C000808783E0818782E082871386148615867E
:1007D0001686178661E080E10C943202A1E21A2E9F
:1007E000AA1BBB1BFD010DC0AA1FBB1FEE1FFF1FD5
:1007F000A217B307E407F50720F0A21BB30BE40B25
:10080000F50B661F771F881F991F1A9469F760956B
:100810007095809590959B01AC01BD01CF01089525
:10082000EE0FFF1F0590F491E02D0994F894FFCF8F
:1008300000000000D30217014501440148656C6CBB
:080840006F20576F726C640019
:00000001FF
