:100000000C945C000C946E000C946E000C946E00CA
:100010000C946E000C946E000C946E000C946E00A8
:100020000C946E000C946E000C946E000C946E0098
:100030000C946E000C946E000C946E000C946E0088
:100040000C941F010C946E000C946E000C946E00C6
:100050000C946E000C946E000C946E000C946E0068
:100060000C946E000C946E00000000080002010069
:100070000003040700000000000000000000000072
:10008000250028002B0000000000240027002A0083
:10009000040404040404040402020202020203032E
:1000A0000303030301020408102040800102040836
:1000B000102001020408102011241FBECFEFD8E049
:1000C000DEBFCDBF21E0A0E0B1E001C01D92AF30A6
:1000D000B207E1F70E9469010C9426020C9400001B
:1000E00090E0FC01EC55FF4F249180579F4FFC019D
:1000F0008491882399F090E0880F991FFC01EA57BA
:10010000FF4FA591B491FC01E458FF4F8591949164
:100110008FB7F894EC91E22BEC938FBF089590E0A9
:10012000FC01E859FF4F2491FC01EC55FF4F34913D
:10013000FC01E057FF4FE491EE23C9F0222339F090
:10014000233001F1A8F4213019F1223029F1F0E037
:10015000EE0FFF1FE458FF4FA591B4918FB7F894AD
:10016000EC91611126C030953E233C938FBF0895DA
:100170002730A9F02830C9F0243049F78091800059
:100180008F7D03C0809180008F7780938000DFCFC8
:1001900084B58F7784BDDBCF84B58F7DFBCF809115
:1001A000B0008F778093B000D2CF8091B0008F7D68
:1001B000F9CF3E2BDACF3FB7F89480910B019091A5
:1001C0000C01A0910D01B0910E0126B5A89B05C0B0
:1001D0002F3F19F00196A11DB11D3FBFBA2FA92FC6
:1001E000982F8827BC01CD01620F711D811D911DC3
:1001F00042E0660F771F881F991F4A95D1F708952F
:100200000F931F93CF93DF93082F162FD42FC8E09F
:100210006D2F661F6627661F802F0E948F00DD0FDF
:1002200061E0812F0E948F0060E0812F0E948F008B
:10023000C15071F7DF91CF911F910F9108951F92D7
:100240000F920FB60F9211242F933F938F939F938A
:10025000AF93BF938091070190910801A09109018C
:10026000B0910A013091060123E0230F2D3758F594
:100270000196A11DB11D2093060180930701909363
:100280000801A0930901B0930A0180910B0190919C
:100290000C01A0910D01B0910E010196A11DB11D9F
:1002A00080930B0190930C01A0930D01B0930E016C
:1002B000BF91AF919F918F913F912F910F900FBE62
:1002C0000F901F90189526E8230F0296A11DB11DCF
:1002D000D2CF789484B5826084BD84B5816084BDBA
:1002E00085B5826085BD85B5816085BD80916E00D4
:1002F000816080936E001092810080918100826005
:100300008093810080918100816080938100809141
:1003100080008160809380008091B1008460809330
:10032000B1008091B00081608093B00080917A002C
:10033000846080937A0080917A00826080937A0052
:1003400080917A00816080937A0080917A00806841
:1003500080937A001092C1008AE00E9470008BE0C6
:100360000E94700089E00E94700088E00E94700086
:1003700087E00E947000B12CA12C00E010E0809179
:100380000401909105018A3091050CF054C0209130
:100390000201309103012436310549F4019690930E
:1003A0000501809304011092030110920201C09193
:1003B0000201D0910301B0920101A092000160E01E
:1003C00089E00E948F004B2D6AE088E00E940001C6
:1003D0004A2D6BE087E00E94000161E089E00E9405
:1003E0008F000E94DB002B013C018AE0C82ED12C3B
:1003F000E12CF12C0E94DB0064197509860997092C
:10040000683E734081059105A8F321E0C21AD10826
:10041000E108F10888EE480E83E0581E611C711C4B
:10042000C114D104E104F10429F72196D09303010A
:10043000C0930201A4CF109205011092040101158E
:10044000110509F49CCF0E94000099CFF894FFCFCA
:00000001FF
